{
  "_format": "hh-sol-artifact-1",
  "contractName": "PlayerAccounting",
  "sourceName": "contracts/PlayerAccounting.sol",
  "abi": [
    {
      "inputs": [
        {
          "internalType": "address",
          "name": "_activeToken",
          "type": "address"
        }
      ],
      "stateMutability": "nonpayable",
      "type": "constructor"
    },
    {
      "inputs": [
        {
          "internalType": "uint256",
          "name": "amount",
          "type": "uint256"
        }
      ],
      "name": "deposit",
      "outputs": [],
      "stateMutability": "nonpayable",
      "type": "function"
    },
    {
      "inputs": [],
      "name": "getActiveStatus",
      "outputs": [
        {
          "internalType": "bool",
          "name": "",
          "type": "bool"
        }
      ],
      "stateMutability": "view",
      "type": "function"
    },
    {
      "inputs": [],
      "name": "getBalance",
      "outputs": [
        {
          "internalType": "uint256",
          "name": "",
          "type": "uint256"
        }
      ],
      "stateMutability": "view",
      "type": "function"
    },
    {
      "inputs": [
        {
          "internalType": "address",
          "name": "_playerAddress",
          "type": "address"
        }
      ],
      "name": "getPlayerActiveStatus",
      "outputs": [
        {
          "internalType": "bool",
          "name": "",
          "type": "bool"
        }
      ],
      "stateMutability": "view",
      "type": "function"
    },
    {
      "inputs": [
        {
          "internalType": "address",
          "name": "_playerAddress",
          "type": "address"
        }
      ],
      "name": "getPlayerBalance",
      "outputs": [
        {
          "internalType": "uint256",
          "name": "",
          "type": "uint256"
        }
      ],
      "stateMutability": "view",
      "type": "function"
    },
    {
      "inputs": [
        {
          "internalType": "address",
          "name": "_playerAddress",
          "type": "address"
        },
        {
          "internalType": "bool",
          "name": "_isActive",
          "type": "bool"
        }
      ],
      "name": "setPlayerActiveStatus",
      "outputs": [],
      "stateMutability": "nonpayable",
      "type": "function"
    }
  ],
  "bytecode": "0x608060405234801561001057600080fd5b50604051610c34380380610c348339818101604052810190610032919061011c565b80600160006101000a81548173ffffffffffffffffffffffffffffffffffffffff021916908373ffffffffffffffffffffffffffffffffffffffff160217905550336000806101000a81548173ffffffffffffffffffffffffffffffffffffffff021916908373ffffffffffffffffffffffffffffffffffffffff16021790555050610149565b600080fd5b600073ffffffffffffffffffffffffffffffffffffffff82169050919050565b60006100e9826100be565b9050919050565b6100f9816100de565b811461010457600080fd5b50565b600081519050610116816100f0565b92915050565b600060208284031215610132576101316100b9565b5b600061014084828501610107565b91505092915050565b610adc806101586000396000f3fe608060405234801561001057600080fd5b50600436106100625760003560e01c806312065fe0146100675780637997380214610085578063a5e9ee65146100b5578063b6b55f25146100d1578063e2734c93146100ed578063f3e676101461011d575b600080fd5b61006f61013b565b60405161007c9190610683565b60405180910390f35b61009f600480360381019061009a9190610701565b610182565b6040516100ac9190610749565b60405180910390f35b6100cf60048036038101906100ca9190610790565b610267565b005b6100eb60048036038101906100e691906107fc565b610350565b005b61010760048036038101906101029190610701565b61053e565b6040516101149190610683565b60405180910390f35b610125610616565b6040516101329190610749565b60405180910390f35b6000600260003373ffffffffffffffffffffffffffffffffffffffff1673ffffffffffffffffffffffffffffffffffffffff16815260200190815260200160002054905090565b60008060009054906101000a900473ffffffffffffffffffffffffffffffffffffffff1673ffffffffffffffffffffffffffffffffffffffff163373ffffffffffffffffffffffffffffffffffffffff1614610213576040517f08c379a000000000000000000000000000000000000000000000000000000000815260040161020a90610886565b60405180910390fd5b600360008373ffffffffffffffffffffffffffffffffffffffff1673ffffffffffffffffffffffffffffffffffffffff16815260200190815260200160002060009054906101000a900460ff169050919050565b60008054906101000a900473ffffffffffffffffffffffffffffffffffffffff1673ffffffffffffffffffffffffffffffffffffffff163373ffffffffffffffffffffffffffffffffffffffff16146102f5576040517f08c379a00000000000000000000000000000000000000000000000000000000081526004016102ec90610886565b60405180910390fd5b80600360008473ffffffffffffffffffffffffffffffffffffffff1673ffffffffffffffffffffffffffffffffffffffff16815260200190815260200160002060006101000a81548160ff0219169083151502179055505050565b6000600160009054906101000a900473ffffffffffffffffffffffffffffffffffffffff1673ffffffffffffffffffffffffffffffffffffffff166370a08231336040518263ffffffff1660e01b81526004016103ad91906108b5565b602060405180830381865afa1580156103ca573d6000803e3d6000fd5b505050506040513d601f19601f820116820180604052508101906103ee91906108e5565b905081811015610433576040517f08c379a000000000000000000000000000000000000000000000000000000000815260040161042a906109aa565b60405180910390fd5b6000600160009054906101000a900473ffffffffffffffffffffffffffffffffffffffff1673ffffffffffffffffffffffffffffffffffffffff166323b872dd3330866040518463ffffffff1660e01b8152600401610494939291906109ca565b6020604051808303816000875af11580156104b3573d6000803e3d6000fd5b505050506040513d601f19601f820116820180604052508101906104d79190610a16565b9050806104e357600080fd5b82600260003373ffffffffffffffffffffffffffffffffffffffff1673ffffffffffffffffffffffffffffffffffffffff16815260200190815260200160002060008282546105329190610a72565b92505081905550505050565b60008060009054906101000a900473ffffffffffffffffffffffffffffffffffffffff1673ffffffffffffffffffffffffffffffffffffffff163373ffffffffffffffffffffffffffffffffffffffff16146105cf576040517f08c379a00000000000000000000000000000000000000000000000000000000081526004016105c690610886565b60405180910390fd5b600260008373ffffffffffffffffffffffffffffffffffffffff1673ffffffffffffffffffffffffffffffffffffffff168152602001908152602001600020549050919050565b6000600360003373ffffffffffffffffffffffffffffffffffffffff1673ffffffffffffffffffffffffffffffffffffffff16815260200190815260200160002060009054906101000a900460ff16905090565b6000819050919050565b61067d8161066a565b82525050565b60006020820190506106986000830184610674565b92915050565b600080fd5b600073ffffffffffffffffffffffffffffffffffffffff82169050919050565b60006106ce826106a3565b9050919050565b6106de816106c3565b81146106e957600080fd5b50565b6000813590506106fb816106d5565b92915050565b6000602082840312156107175761071661069e565b5b6000610725848285016106ec565b91505092915050565b60008115159050919050565b6107438161072e565b82525050565b600060208201905061075e600083018461073a565b92915050565b61076d8161072e565b811461077857600080fd5b50565b60008135905061078a81610764565b92915050565b600080604083850312156107a7576107a661069e565b5b60006107b5858286016106ec565b92505060206107c68582860161077b565b9150509250929050565b6107d98161066a565b81146107e457600080fd5b50565b6000813590506107f6816107d0565b92915050565b6000602082840312156108125761081161069e565b5b6000610820848285016107e7565b91505092915050565b600082825260208201905092915050565b7f43616c6c6572206973206e6f7420746865206f776e6572000000000000000000600082015250565b6000610870601783610829565b915061087b8261083a565b602082019050919050565b6000602082019050818103600083015261089f81610863565b9050919050565b6108af816106c3565b82525050565b60006020820190506108ca60008301846108a6565b92915050565b6000815190506108df816107d0565b92915050565b6000602082840312156108fb576108fa61069e565b5b6000610909848285016108d0565b91505092915050565b7f5468652063616c6c696e67206163636f756e7420646f6573206e6f742068617660008201527f6520656e6f7567682045524332302066756e647320666f72207468652064657060208201527f6f73697400000000000000000000000000000000000000000000000000000000604082015250565b6000610994604483610829565b915061099f82610912565b606082019050919050565b600060208201905081810360008301526109c381610987565b9050919050565b60006060820190506109df60008301866108a6565b6109ec60208301856108a6565b6109f96040830184610674565b949350505050565b600081519050610a1081610764565b92915050565b600060208284031215610a2c57610a2b61069e565b5b6000610a3a84828501610a01565b91505092915050565b7f4e487b7100000000000000000000000000000000000000000000000000000000600052601160045260246000fd5b6000610a7d8261066a565b9150610a888361066a565b9250828201905080821115610aa057610a9f610a43565b5b9291505056fea26469706673582212202a4faa891397b1f192a70809df992bbdbdc6f1bec9e43bb74bc1de5b9d2b5d8164736f6c63430008140033",
  "linkReferences": {},
  "deployedLinkReferences": {}
}